{
  "contractName": "VendingMachine",
  "abi": [
    {
      "inputs": [],
      "stateMutability": "nonpayable",
      "type": "constructor"
    },
    {
      "inputs": [
        {
          "internalType": "address",
          "name": "",
          "type": "address"
        }
      ],
      "name": "donoughtBalance",
      "outputs": [
        {
          "internalType": "uint256",
          "name": "",
          "type": "uint256"
        }
      ],
      "stateMutability": "view",
      "type": "function",
      "constant": true
    },
    {
      "inputs": [],
      "name": "owner",
      "outputs": [
        {
          "internalType": "address",
          "name": "",
          "type": "address"
        }
      ],
      "stateMutability": "view",
      "type": "function",
      "constant": true
    },
    {
      "inputs": [],
      "name": "getVendingMachineBalance",
      "outputs": [
        {
          "internalType": "uint256",
          "name": "",
          "type": "uint256"
        }
      ],
      "stateMutability": "view",
      "type": "function",
      "constant": true
    },
    {
      "inputs": [
        {
          "internalType": "uint256",
          "name": "amount",
          "type": "uint256"
        }
      ],
      "name": "restockVendingMachine",
      "outputs": [],
      "stateMutability": "nonpayable",
      "type": "function"
    },
    {
      "inputs": [
        {
          "internalType": "uint256",
          "name": "amount",
          "type": "uint256"
        }
      ],
      "name": "purchase",
      "outputs": [],
      "stateMutability": "payable",
      "type": "function",
      "payable": true
    }
  ],
  "bytecode": "0x608060405234801561001057600080fd5b50336000806101000a81548173ffffffffffffffffffffffffffffffffffffffff021916908373ffffffffffffffffffffffffffffffffffffffff1602179055506064600160003073ffffffffffffffffffffffffffffffffffffffff1673ffffffffffffffffffffffffffffffffffffffff16815260200190815260200160002081905550610849806100a56000396000f3fe60806040526004361061004a5760003560e01c80638da5cb5b1461004f5780639225c7631461007a578063df8a7b9c146100a3578063e7644d34146100e0578063efef39a11461010b575b600080fd5b34801561005b57600080fd5b50610064610127565b6040516100719190610459565b60405180910390f35b34801561008657600080fd5b506100a1600480360381019061009c91906104af565b61014b565b005b3480156100af57600080fd5b506100ca60048036038101906100c59190610508565b610232565b6040516100d79190610544565b60405180910390f35b3480156100ec57600080fd5b506100f561024a565b6040516101029190610544565b60405180910390f35b610125600480360381019061012091906104af565b610291565b005b60008054906101000a900473ffffffffffffffffffffffffffffffffffffffff1681565b60008054906101000a900473ffffffffffffffffffffffffffffffffffffffff1673ffffffffffffffffffffffffffffffffffffffff163373ffffffffffffffffffffffffffffffffffffffff16146101d9576040517f08c379a00000000000000000000000000000000000000000000000000000000081526004016101d0906105e2565b60405180910390fd5b80600160003073ffffffffffffffffffffffffffffffffffffffff1673ffffffffffffffffffffffffffffffffffffffff16815260200190815260200160002060008282546102289190610631565b9250508190555050565b60016020528060005260406000206000915090505481565b6000600160003073ffffffffffffffffffffffffffffffffffffffff1673ffffffffffffffffffffffffffffffffffffffff16815260200190815260200160002054905090565b671bc16d674ec80000816102a59190610687565b3410156102e7576040517f08c379a00000000000000000000000000000000000000000000000000000000081526004016102de90610753565b60405180910390fd5b80600160003073ffffffffffffffffffffffffffffffffffffffff1673ffffffffffffffffffffffffffffffffffffffff168152602001908152602001600020541015610369576040517f08c379a0000000000000000000000000000000000000000000000000000000008152600401610360906107bf565b60405180910390fd5b80600160003073ffffffffffffffffffffffffffffffffffffffff1673ffffffffffffffffffffffffffffffffffffffff16815260200190815260200160002060008282546103b891906107df565b9250508190555080600160003373ffffffffffffffffffffffffffffffffffffffff1673ffffffffffffffffffffffffffffffffffffffff168152602001908152602001600020600082825461040e9190610631565b9250508190555050565b600073ffffffffffffffffffffffffffffffffffffffff82169050919050565b600061044382610418565b9050919050565b61045381610438565b82525050565b600060208201905061046e600083018461044a565b92915050565b600080fd5b6000819050919050565b61048c81610479565b811461049757600080fd5b50565b6000813590506104a981610483565b92915050565b6000602082840312156104c5576104c4610474565b5b60006104d38482850161049a565b91505092915050565b6104e581610438565b81146104f057600080fd5b50565b600081359050610502816104dc565b92915050565b60006020828403121561051e5761051d610474565b5b600061052c848285016104f3565b91505092915050565b61053e81610479565b82525050565b60006020820190506105596000830184610535565b92915050565b600082825260208201905092915050565b7f6f6e6c79206f776e65722063616e20726573746f636b2074686973206d61636860008201527f696e650000000000000000000000000000000000000000000000000000000000602082015250565b60006105cc60238361055f565b91506105d782610570565b604082019050919050565b600060208201905081810360008301526105fb816105bf565b9050919050565b7f4e487b7100000000000000000000000000000000000000000000000000000000600052601160045260246000fd5b600061063c82610479565b915061064783610479565b9250827fffffffffffffffffffffffffffffffffffffffffffffffffffffffffffffffff0382111561067c5761067b610602565b5b828201905092915050565b600061069282610479565b915061069d83610479565b9250817fffffffffffffffffffffffffffffffffffffffffffffffffffffffffffffffff04831182151516156106d6576106d5610602565b5b828202905092915050565b7f206d757374207061792061746c6561737420322065746865722070657220646f60008201527f6e6f756768740000000000000000000000000000000000000000000000000000602082015250565b600061073d60268361055f565b9150610748826106e1565b604082019050919050565b6000602082019050818103600083015261076c81610730565b9050919050565b7f6e6f7420656e6f75676820646f6e6f756768747320696e206d616368696e6500600082015250565b60006107a9601f8361055f565b91506107b482610773565b602082019050919050565b600060208201905081810360008301526107d88161079c565b9050919050565b60006107ea82610479565b91506107f583610479565b92508282101561080857610807610602565b5b82820390509291505056fea264697066735822122004e9b1a96cb0ee96b2017db12f2c68beea5e33d5b48012cafcaf9e64f33ff9c664736f6c634300080d0033",
  "immutableReferences": {},
  "source": "// SPDX-License-Identifier: MIT\r\n\r\npragma solidity ^0.8.13;\r\n\r\ncontract VendingMachine{\r\n    address public owner;\r\n    mapping (address => uint) public donoughtBalance;\r\n \r\n    constructor(){\r\n        owner = msg.sender;\r\n        donoughtBalance[address(this)] = 100;\r\n    }\r\n    \r\n    function getVendingMachineBalance() public view returns (uint){\r\n        return donoughtBalance[address(this)];\r\n    }\r\n\r\n    function restockVendingMachine(uint amount) public{\r\n        require(msg.sender == owner, \"only owner can restock this machine\");\r\n        donoughtBalance[address(this)]+= amount;\r\n    }\r\n\r\n    function purchase (uint amount) public payable {\r\n        require(msg.value >= amount * 2 ether,\" must pay atleast 2 ether per donought\");\r\n        require(donoughtBalance[address(this)] >= amount,\"not enough donoughts in machine\");\r\n        donoughtBalance[address(this)]-= amount;\r\n        donoughtBalance[msg.sender] += amount;\r\n    }\r\n\r\n}",
  "sourcePath": "C:\\Users\\10zin\\Desktop\\vending-machine\\contracts\\VendingMachine.sol",
  "compiler": {
    "name": "solc",
    "version": "0.8.13+commit.abaa5c0e.Emscripten.clang"
  },
  "schemaVersion": "3.4.6",
  "updatedAt": "2022-04-04T11:13:54.341Z",
  "networkType": "ethereum",
  "devdoc": {
    "kind": "dev",
    "methods": {},
    "version": 1
  },
  "userdoc": {
    "kind": "user",
    "methods": {},
    "version": 1
  }
}